{
  "contractName": "SimpleContract2",
  "abi": [
    {
      "inputs": [
        {
          "internalType": "uint256[3]",
          "name": "c_",
          "type": "uint256[3]"
        }
      ],
      "stateMutability": "nonpayable",
      "type": "constructor"
    },
    {
      "inputs": [],
      "name": "caller3",
      "outputs": [
        {
          "internalType": "uint256[3]",
          "name": "",
          "type": "uint256[3]"
        }
      ],
      "stateMutability": "view",
      "type": "function"
    }
  ],
  "bytecode": "0x608060405234801561001057600080fd5b5060405161043038038061043083398181016040528101906100329190610233565b80600090600361004392919061004a565b5050610260565b8260038101928215610079579160200282015b8281111561007857825182559160200191906001019061005d565b5b509050610086919061008a565b5090565b5b808211156100a357600081600090555060010161008b565b5090565b6000604051905090565b600080fd5b600080fd5b6000601f19601f8301169050919050565b7f4e487b7100000000000000000000000000000000000000000000000000000000600052604160045260246000fd5b610104826100bb565b810181811067ffffffffffffffff82111715610123576101226100cc565b5b80604052505050565b60006101366100a7565b905061014282826100fb565b919050565b600067ffffffffffffffff821115610162576101616100cc565b5b602082029050919050565b600080fd5b6000819050919050565b61018581610172565b811461019057600080fd5b50565b6000815190506101a28161017c565b92915050565b60006101bb6101b684610147565b61012c565b905080602084028301858111156101d5576101d461016d565b5b835b818110156101fe57806101ea8882610193565b8452602084019350506020810190506101d7565b5050509392505050565b600082601f83011261021d5761021c6100b6565b5b600361022a8482856101a8565b91505092915050565b600060608284031215610249576102486100b1565b5b600061025784828501610208565b91505092915050565b6101c18061026f6000396000f3fe608060405234801561001057600080fd5b506004361061002b5760003560e01c806328ffecdf14610030575b600080fd5b61003861004e565b6040516100459190610170565b60405180910390f35b610056610099565b600060038060200260405190810160405280929190826003801561008f576020028201915b81548152602001906001019080831161007b575b5050505050905090565b6040518060600160405280600390602082028036833780820191505090505090565b600060039050919050565b600081905092915050565b6000819050919050565b6000819050919050565b6100ee816100db565b82525050565b600061010083836100e5565b60208301905092915050565b6000602082019050919050565b610122816100bb565b61012c81846100c6565b9250610137826100d1565b8060005b8381101561016857815161014f87826100f4565b965061015a8361010c565b92505060018101905061013b565b505050505050565b60006060820190506101856000830184610119565b9291505056fea2646970667358221220083a1e0b922b64a92b4e97ad8dde4dbb03b9674ae82f306a332e90e39478f69664736f6c634300080b0033",
  "immutableReferences": {},
  "source": "// SPDX-License-Identifier: MIT\npragma solidity ^0.8.11;\n\ncontract SimpleContract2 {\n  uint256[3] c;\n\n  constructor(uint256[3] memory c_) {\n    c = c_;\n  }\n\n  function caller3() view public returns(uint256[3] memory) {\n    return c;\n  }\n}\n",
  "sourcePath": "C:\\Github\\test_ethers\\truffle\\contracts\\SimpleContract2.sol",
  "compiler": {
    "name": "solc",
    "version": "0.8.11+commit.d7f03943.Emscripten.clang"
  },
  "schemaVersion": "3.4.7",
  "updatedAt": "2023-04-27T09:21:42.791Z",
  "devdoc": {
    "kind": "dev",
    "methods": {},
    "version": 1
  },
  "userdoc": {
    "kind": "user",
    "methods": {},
    "version": 1
  }
}