{
  "contractName": "SimpleContract",
  "abi": [
    {
      "inputs": [
        {
          "internalType": "uint256",
          "name": "a_",
          "type": "uint256"
        }
      ],
      "stateMutability": "nonpayable",
      "type": "constructor"
    },
    {
      "inputs": [],
      "name": "caller1",
      "outputs": [
        {
          "internalType": "uint256",
          "name": "",
          "type": "uint256"
        }
      ],
      "stateMutability": "view",
      "type": "function"
    }
  ],
  "bytecode": "0x608060405234801561001057600080fd5b5060405161016b38038061016b8339818101604052810190610032919061007a565b80600081905550506100a7565b600080fd5b6000819050919050565b61005781610044565b811461006257600080fd5b50565b6000815190506100748161004e565b92915050565b6000602082840312156100905761008f61003f565b5b600061009e84828501610065565b91505092915050565b60b6806100b56000396000f3fe6080604052348015600f57600080fd5b506004361060285760003560e01c8063400c963e14602d575b600080fd5b60336047565b604051603e91906067565b60405180910390f35b60008054905090565b6000819050919050565b6061816050565b82525050565b6000602082019050607a6000830184605a565b9291505056fea26469706673582212207e7dae8ba42422bf0cd0802e4fe91663626bae41805abc53970c4e534b61c0e564736f6c634300080b0033",
  "immutableReferences": {},
  "source": "// SPDX-License-Identifier: MIT\npragma solidity ^0.8.11;\n\ncontract SimpleContract {\n  uint256 a;\n\n  constructor(uint256 a_) {\n    a = a_;\n  }\n\n  function caller1() view public returns(uint256) {\n    return a;\n  }\n}\n",
  "sourcePath": "C:\\Github\\test_ethers\\truffle\\contracts\\SimpleContract.sol",
  "compiler": {
    "name": "solc",
    "version": "0.8.11+commit.d7f03943.Emscripten.clang"
  },
  "schemaVersion": "3.4.7",
  "updatedAt": "2023-04-28T02:42:15.913Z",
  "devdoc": {
    "kind": "dev",
    "methods": {},
    "version": 1
  },
  "userdoc": {
    "kind": "user",
    "methods": {},
    "version": 1
  }
}